{
  "contractName": "Runner",
  "abi": [
    {
      "constant": false,
      "inputs": [
        {
          "internalType": "uint256",
          "name": "date",
          "type": "uint256"
        },
        {
          "internalType": "uint256",
          "name": "duration",
          "type": "uint256"
        }
      ],
      "name": "store",
      "outputs": [],
      "payable": false,
      "stateMutability": "nonpayable",
      "type": "function"
    },
    {
      "constant": true,
      "inputs": [],
      "name": "all",
      "outputs": [
        {
          "internalType": "uint256[31]",
          "name": "",
          "type": "uint256[31]"
        }
      ],
      "payable": false,
      "stateMutability": "view",
      "type": "function"
    },
    {
      "constant": true,
      "inputs": [
        {
          "internalType": "uint256",
          "name": "index",
          "type": "uint256"
        }
      ],
      "name": "record",
      "outputs": [
        {
          "internalType": "uint256",
          "name": "",
          "type": "uint256"
        }
      ],
      "payable": false,
      "stateMutability": "view",
      "type": "function"
    }
  ],
  "bytecode": "0x608060405234801561001057600080fd5b506101f2806100206000396000f3fe608060405234801561001057600080fd5b50600436106100415760003560e01c806310c4e8b0146100465780632c16cd8a1461008c5780636ed28ed0146100ce575b600080fd5b61004e610106565b6040518082601f60200280838360005b8381101561007957808201518184015260208101905061005e565b5050505090500191505060405180910390f35b6100b8600480360360208110156100a257600080fd5b8101908080359060200190929190505050610151565b6040518082815260200191505060405180910390f35b610104600480360360408110156100e457600080fd5b810190808035906020019092919080359060200190929190505050610168565b005b61010e61019a565b6000601f806020026040519081016040528092919082601f8015610147576020028201915b815481526020019060010190808311610133575b5050505050905090565b60008082601f811061015f57fe5b01549050919050565b601e821115801561017a575060008210155b61018357600080fd5b80600083601f811061019157fe5b01819055505050565b604051806103e00160405280601f9060208202803883398082019150509050509056fea265627a7a72315820f8e9b0c36143e3fe61afe4a233f519042148eb85bfc1c3813b0fbf2db3a1e9e764736f6c63430005100032",
  "source": "//SPDX-License-Identifier: MIT\npragma solidity >= 0.5.0 < 0.7.0;\n\ncontract Runner {\n  uint[31] private records;\n  // mapping (uint => uint) private records;\n\n  function store(uint date, uint duration) public{\n    require(date<=30 && date >=0);\n\n    records[date] = duration;\n  }\n\n  function all() public view returns (uint[31] memory) {\n    return records;\n  }\n\n  function record(uint index) public view returns (uint) {\n    return records[index];\n  }\n}\n",
  "sourcePath": "/home/ali/projects/dapp-university/runner/contracts/Runner.sol",
  "compiler": {
    "name": "solc",
    "version": "0.5.16+commit.9c3226ce.Emscripten.clang"
  },
  "schemaVersion": "3.2.0",
  "updatedAt": "2020-07-17T15:17:31.803Z",
  "networkType": "ethereum",
  "devdoc": {
    "methods": {}
  },
  "userdoc": {
    "methods": {}
  }
}